{
  "contractName": "GameItem",
  "abi": [
    {
      "inputs": [
        {
          "internalType": "string",
          "name": "name",
          "type": "string"
        },
        {
          "internalType": "string",
          "name": "symbol",
          "type": "string"
        }
      ],
      "stateMutability": "nonpayable",
      "type": "constructor"
    },
    {
      "anonymous": false,
      "inputs": [
        {
          "indexed": true,
          "internalType": "address",
          "name": "owner",
          "type": "address"
        },
        {
          "indexed": true,
          "internalType": "address",
          "name": "approved",
          "type": "address"
        },
        {
          "indexed": true,
          "internalType": "uint256",
          "name": "tokenId",
          "type": "uint256"
        }
      ],
      "name": "Approval",
      "type": "event"
    },
    {
      "anonymous": false,
      "inputs": [
        {
          "indexed": true,
          "internalType": "address",
          "name": "owner",
          "type": "address"
        },
        {
          "indexed": true,
          "internalType": "address",
          "name": "operator",
          "type": "address"
        },
        {
          "indexed": false,
          "internalType": "bool",
          "name": "approved",
          "type": "bool"
        }
      ],
      "name": "ApprovalForAll",
      "type": "event"
    },
    {
      "anonymous": false,
      "inputs": [
        {
          "indexed": true,
          "internalType": "address",
          "name": "from",
          "type": "address"
        },
        {
          "indexed": true,
          "internalType": "address",
          "name": "to",
          "type": "address"
        },
        {
          "indexed": true,
          "internalType": "uint256",
          "name": "tokenId",
          "type": "uint256"
        }
      ],
      "name": "Transfer",
      "type": "event"
    },
    {
      "inputs": [
        {
          "internalType": "address",
          "name": "to",
          "type": "address"
        },
        {
          "internalType": "uint256",
          "name": "tokenId",
          "type": "uint256"
        }
      ],
      "name": "approve",
      "outputs": [],
      "stateMutability": "nonpayable",
      "type": "function"
    },
    {
      "inputs": [
        {
          "internalType": "address",
          "name": "owner",
          "type": "address"
        }
      ],
      "name": "balanceOf",
      "outputs": [
        {
          "internalType": "uint256",
          "name": "",
          "type": "uint256"
        }
      ],
      "stateMutability": "view",
      "type": "function"
    },
    {
      "inputs": [
        {
          "internalType": "uint256",
          "name": "tokenId",
          "type": "uint256"
        }
      ],
      "name": "getApproved",
      "outputs": [
        {
          "internalType": "address",
          "name": "",
          "type": "address"
        }
      ],
      "stateMutability": "view",
      "type": "function"
    },
    {
      "inputs": [
        {
          "internalType": "address",
          "name": "owner",
          "type": "address"
        },
        {
          "internalType": "address",
          "name": "operator",
          "type": "address"
        }
      ],
      "name": "isApprovedForAll",
      "outputs": [
        {
          "internalType": "bool",
          "name": "",
          "type": "bool"
        }
      ],
      "stateMutability": "view",
      "type": "function"
    },
    {
      "inputs": [],
      "name": "name",
      "outputs": [
        {
          "internalType": "string",
          "name": "",
          "type": "string"
        }
      ],
      "stateMutability": "view",
      "type": "function"
    },
    {
      "inputs": [
        {
          "internalType": "uint256",
          "name": "tokenId",
          "type": "uint256"
        }
      ],
      "name": "ownerOf",
      "outputs": [
        {
          "internalType": "address",
          "name": "",
          "type": "address"
        }
      ],
      "stateMutability": "view",
      "type": "function"
    },
    {
      "inputs": [
        {
          "internalType": "address",
          "name": "from",
          "type": "address"
        },
        {
          "internalType": "address",
          "name": "to",
          "type": "address"
        },
        {
          "internalType": "uint256",
          "name": "tokenId",
          "type": "uint256"
        }
      ],
      "name": "safeTransferFrom",
      "outputs": [],
      "stateMutability": "nonpayable",
      "type": "function"
    },
    {
      "inputs": [
        {
          "internalType": "address",
          "name": "from",
          "type": "address"
        },
        {
          "internalType": "address",
          "name": "to",
          "type": "address"
        },
        {
          "internalType": "uint256",
          "name": "tokenId",
          "type": "uint256"
        },
        {
          "internalType": "bytes",
          "name": "_data",
          "type": "bytes"
        }
      ],
      "name": "safeTransferFrom",
      "outputs": [],
      "stateMutability": "nonpayable",
      "type": "function"
    },
    {
      "inputs": [
        {
          "internalType": "address",
          "name": "operator",
          "type": "address"
        },
        {
          "internalType": "bool",
          "name": "approved",
          "type": "bool"
        }
      ],
      "name": "setApprovalForAll",
      "outputs": [],
      "stateMutability": "nonpayable",
      "type": "function"
    },
    {
      "inputs": [
        {
          "internalType": "bytes4",
          "name": "interfaceId",
          "type": "bytes4"
        }
      ],
      "name": "supportsInterface",
      "outputs": [
        {
          "internalType": "bool",
          "name": "",
          "type": "bool"
        }
      ],
      "stateMutability": "view",
      "type": "function"
    },
    {
      "inputs": [],
      "name": "symbol",
      "outputs": [
        {
          "internalType": "string",
          "name": "",
          "type": "string"
        }
      ],
      "stateMutability": "view",
      "type": "function"
    },
    {
      "inputs": [
        {
          "internalType": "uint256",
          "name": "tokenId",
          "type": "uint256"
        }
      ],
      "name": "tokenURI",
      "outputs": [
        {
          "internalType": "string",
          "name": "",
          "type": "string"
        }
      ],
      "stateMutability": "view",
      "type": "function"
    },
    {
      "inputs": [
        {
          "internalType": "address",
          "name": "from",
          "type": "address"
        },
        {
          "internalType": "address",
          "name": "to",
          "type": "address"
        },
        {
          "internalType": "uint256",
          "name": "tokenId",
          "type": "uint256"
        }
      ],
      "name": "transferFrom",
      "outputs": [],
      "stateMutability": "nonpayable",
      "type": "function"
    },
    {
      "inputs": [
        {
          "internalType": "address",
          "name": "player",
          "type": "address"
        },
        {
          "internalType": "string",
          "name": "tokenURI",
          "type": "string"
        }
      ],
      "name": "awardItem",
      "outputs": [
        {
          "internalType": "uint256",
          "name": "",
          "type": "uint256"
        }
      ],
      "stateMutability": "nonpayable",
      "type": "function"
    },
    {
      "inputs": [
        {
          "internalType": "address",
          "name": "from",
          "type": "address"
        },
        {
          "internalType": "address",
          "name": "to",
          "type": "address"
        },
        {
          "internalType": "uint256",
          "name": "tokenId",
          "type": "uint256"
        },
        {
          "internalType": "bytes",
          "name": "_data",
          "type": "bytes"
        }
      ],
      "name": "TransferFrom",
      "outputs": [],
      "stateMutability": "nonpayable",
      "type": "function"
    },
    {
      "inputs": [
        {
          "internalType": "address",
          "name": "from",
          "type": "address"
        },
        {
          "internalType": "address",
          "name": "to",
          "type": "address"
        },
        {
          "internalType": "uint256",
          "name": "tokenId",
          "type": "uint256"
        }
      ],
      "name": "TransferFrom",
      "outputs": [],
      "stateMutability": "nonpayable",
      "type": "function"
    },
    {
      "inputs": [
        {
          "internalType": "address",
          "name": "add",
          "type": "address"
        }
      ],
      "name": "inWlist",
      "outputs": [
        {
          "internalType": "bool",
          "name": "",
          "type": "bool"
        }
      ],
      "stateMutability": "view",
      "type": "function"
    },
    {
      "inputs": [
        {
          "internalType": "address",
          "name": "add",
          "type": "address"
        }
      ],
      "name": "addtoWlist",
      "outputs": [],
      "stateMutability": "nonpayable",
      "type": "function"
    },
    {
      "inputs": [
        {
          "internalType": "address",
          "name": "add",
          "type": "address"
        }
      ],
      "name": "removefromWlist",
      "outputs": [],
      "stateMutability": "nonpayable",
      "type": "function"
    },
    {
      "inputs": [
        {
          "internalType": "address",
          "name": "add",
          "type": "address"
        }
      ],
      "name": "ownedTokens",
      "outputs": [
        {
          "internalType": "uint256[]",
          "name": "",
          "type": "uint256[]"
        }
      ],
      "stateMutability": "view",
      "type": "function"
    }
  ],
  "bytecode": "0x60806040523480156200001157600080fd5b50604051620034ed380380620034ed8339818101604052810190620000379190620001d8565b8181816000908051906020019062000051929190620000b6565b5080600190805190602001906200006a929190620000b6565b50505033600960006101000a81548173ffffffffffffffffffffffffffffffffffffffff021916908373ffffffffffffffffffffffffffffffffffffffff16021790555050506200037c565b828054620000c490620002e8565b90600052602060002090601f016020900481019282620000e8576000855562000134565b82601f106200010357805160ff191683800117855562000134565b8280016001018555821562000134579182015b828111156200013357825182559160200191906001019062000116565b5b50905062000143919062000147565b5090565b5b808211156200016257600081600090555060010162000148565b5090565b60006200017d62000177846200027f565b6200024b565b9050828152602081018484840111156200019657600080fd5b620001a3848285620002b2565b509392505050565b600082601f830112620001bd57600080fd5b8151620001cf84826020860162000166565b91505092915050565b60008060408385031215620001ec57600080fd5b600083015167ffffffffffffffff8111156200020757600080fd5b6200021585828601620001ab565b925050602083015167ffffffffffffffff8111156200023357600080fd5b6200024185828601620001ab565b9150509250929050565b6000604051905081810181811067ffffffffffffffff821117156200027557620002746200034d565b5b8060405250919050565b600067ffffffffffffffff8211156200029d576200029c6200034d565b5b601f19601f8301169050602081019050919050565b60005b83811015620002d2578082015181840152602081019050620002b5565b83811115620002e2576000848401525b50505050565b600060028204905060018216806200030157607f821691505b602082108114156200031857620003176200031e565b5b50919050565b7f4e487b7100000000000000000000000000000000000000000000000000000000600052602260045260246000fd5b7f4e487b7100000000000000000000000000000000000000000000000000000000600052604160045260246000fd5b613161806200038c6000396000f3fe608060405234801561001057600080fd5b506004361061012c5760003560e01c80636352211e116100ad578063b88d4fde11610071578063b88d4fde14610351578063c0d84ce51461036d578063c87b56dd14610389578063cf378343146103b9578063e985e9c5146103e95761012c565b80636352211e1461028757806370a08231146102b757806395d89b41146102e7578063a22cb46514610305578063b12ab40f146103215761012c565b806323b872dd116100f457806323b872dd146101e75780632a6a0a77146102035780632b8a4a801461021f57806342842e0e1461024f5780635896b58a1461026b5761012c565b806301ffc9a71461013157806306fdde0314610161578063081812fc1461017f578063095ea7b3146101af5780631ad8d9fc146101cb575b600080fd5b61014b60048036038101906101469190612215565b610419565b6040516101589190612a80565b60405180910390f35b6101696104fb565b6040516101769190612a9b565b60405180910390f35b61019960048036038101906101949190612267565b61058d565b6040516101a691906129f7565b60405180910390f35b6101c960048036038101906101c491906121d9565b610612565b005b6101e560048036038101906101e0919061201a565b61072a565b005b61020160048036038101906101fc919061207f565b6107ea565b005b61021d6004803603810190610218919061201a565b61084a565b005b6102396004803603810190610234919061201a565b610977565b6040516102469190612a80565b60405180910390f35b6102696004803603810190610264919061207f565b610a4c565b005b610285600480360381019061028091906120ce565b610a6c565b005b6102a1600480360381019061029c9190612267565b610a90565b6040516102ae91906129f7565b60405180910390f35b6102d160048036038101906102cc919061201a565b610b42565b6040516102de9190612cbd565b60405180910390f35b6102ef610bfa565b6040516102fc9190612a9b565b60405180910390f35b61031f600480360381019061031a9190612149565b610c8c565b005b61033b6004803603810190610336919061201a565b610e0d565b6040516103489190612a5e565b60405180910390f35b61036b600480360381019061036691906120ce565b610ea4565b005b6103876004803603810190610382919061207f565b610f06565b005b6103a3600480360381019061039e9190612267565b610f28565b6040516103b09190612a9b565b60405180910390f35b6103d360048036038101906103ce9190612185565b61107a565b6040516103e09190612cbd565b60405180910390f35b61040360048036038101906103fe9190612043565b611184565b6040516104109190612a80565b60405180910390f35b60007f80ac58cd000000000000000000000000000000000000000000000000000000007bffffffffffffffffffffffffffffffffffffffffffffffffffffffff1916827bffffffffffffffffffffffffffffffffffffffffffffffffffffffff191614806104e457507f5b5e139f000000000000000000000000000000000000000000000000000000007bffffffffffffffffffffffffffffffffffffffffffffffffffffffff1916827bffffffffffffffffffffffffffffffffffffffffffffffffffffffff1916145b806104f457506104f382611218565b5b9050919050565b60606000805461050a90612f56565b80601f016020809104026020016040519081016040528092919081815260200182805461053690612f56565b80156105835780601f1061055857610100808354040283529160200191610583565b820191906000526020600020905b81548152906001019060200180831161056657829003601f168201915b5050505050905090565b600061059882611282565b6105d7576040517f08c379a00000000000000000000000000000000000000000000000000000000081526004016105ce90612c1d565b60405180910390fd5b6004600083815260200190815260200160002060009054906101000a900473ffffffffffffffffffffffffffffffffffffffff169050919050565b600061061d82610a90565b90508073ffffffffffffffffffffffffffffffffffffffff168373ffffffffffffffffffffffffffffffffffffffff16141561068e576040517f08c379a000000000000000000000000000000000000000000000000000000000815260040161068590612c7d565b60405180910390fd5b8073ffffffffffffffffffffffffffffffffffffffff166106ad6112ee565b73ffffffffffffffffffffffffffffffffffffffff1614806106dc57506106db816106d66112ee565b611184565b5b61071b576040517f08c379a000000000000000000000000000000000000000000000000000000000815260040161071290612b5d565b60405180910390fd5b61072583836112f6565b505050565b3373ffffffffffffffffffffffffffffffffffffffff16600960009054906101000a900473ffffffffffffffffffffffffffffffffffffffff1673ffffffffffffffffffffffffffffffffffffffff161461078457600080fd5b6008819080600181540180825580915050600190039060005260206000200160009091909190916101000a81548173ffffffffffffffffffffffffffffffffffffffff021916908373ffffffffffffffffffffffffffffffffffffffff16021790555050565b6107fb6107f56112ee565b826113af565b61083a576040517f08c379a000000000000000000000000000000000000000000000000000000000815260040161083190612c9d565b60405180910390fd5b61084583838361148d565b505050565b60005b600880549050811015610972578173ffffffffffffffffffffffffffffffffffffffff16600882815481106108ab577f4e487b7100000000000000000000000000000000000000000000000000000000600052603260045260246000fd5b9060005260206000200160009054906101000a900473ffffffffffffffffffffffffffffffffffffffff1673ffffffffffffffffffffffffffffffffffffffff16141561095f576008818154811061092c577f4e487b7100000000000000000000000000000000000000000000000000000000600052603260045260246000fd5b9060005260206000200160006101000a81549073ffffffffffffffffffffffffffffffffffffffff021916905550610974565b808061096a90612f88565b91505061084d565b505b50565b600080600090505b600880549050811015610a41578273ffffffffffffffffffffffffffffffffffffffff16600882815481106109dd577f4e487b7100000000000000000000000000000000000000000000000000000000600052603260045260246000fd5b9060005260206000200160009054906101000a900473ffffffffffffffffffffffffffffffffffffffff1673ffffffffffffffffffffffffffffffffffffffff161415610a2e576001915050610a47565b8080610a3990612f88565b91505061097f565b50600090505b919050565b610a6783838360405180602001604052806000815250610ea4565b505050565b610a7583610977565b610a7e57600080fd5b610a8a84848484610ea4565b50505050565b6000806002600084815260200190815260200160002060009054906101000a900473ffffffffffffffffffffffffffffffffffffffff169050600073ffffffffffffffffffffffffffffffffffffffff168173ffffffffffffffffffffffffffffffffffffffff161415610b39576040517f08c379a0000000000000000000000000000000000000000000000000000000008152600401610b3090612b9d565b60405180910390fd5b80915050919050565b60008073ffffffffffffffffffffffffffffffffffffffff168273ffffffffffffffffffffffffffffffffffffffff161415610bb3576040517f08c379a0000000000000000000000000000000000000000000000000000000008152600401610baa90612b7d565b60405180910390fd5b600360008373ffffffffffffffffffffffffffffffffffffffff1673ffffffffffffffffffffffffffffffffffffffff168152602001908152602001600020549050919050565b606060018054610c0990612f56565b80601f0160208091040260200160405190810160405280929190818152602001828054610c3590612f56565b8015610c825780601f10610c5757610100808354040283529160200191610c82565b820191906000526020600020905b815481529060010190602001808311610c6557829003601f168201915b5050505050905090565b610c946112ee565b73ffffffffffffffffffffffffffffffffffffffff168273ffffffffffffffffffffffffffffffffffffffff161415610d02576040517f08c379a0000000000000000000000000000000000000000000000000000000008152600401610cf990612b1d565b60405180910390fd5b8060056000610d0f6112ee565b73ffffffffffffffffffffffffffffffffffffffff1673ffffffffffffffffffffffffffffffffffffffff16815260200190815260200160002060008473ffffffffffffffffffffffffffffffffffffffff1673ffffffffffffffffffffffffffffffffffffffff16815260200190815260200160002060006101000a81548160ff0219169083151502179055508173ffffffffffffffffffffffffffffffffffffffff16610dbc6112ee565b73ffffffffffffffffffffffffffffffffffffffff167f17307eab39ab6107e8899845ad3d59bd9653f200f220920489ca2b5937696c3183604051610e019190612a80565b60405180910390a35050565b6060600a60008373ffffffffffffffffffffffffffffffffffffffff1673ffffffffffffffffffffffffffffffffffffffff168152602001908152602001600020805480602002602001604051908101604052809291908181526020018280548015610e9857602002820191906000526020600020905b815481526020019060010190808311610e84575b50505050509050919050565b610eb5610eaf6112ee565b836113af565b610ef4576040517f08c379a0000000000000000000000000000000000000000000000000000000008152600401610eeb90612c9d565b60405180910390fd5b610f00848484846116e9565b50505050565b610f0f82610977565b610f1857600080fd5b610f23838383610a4c565b505050565b6060610f3382611282565b610f72576040517f08c379a0000000000000000000000000000000000000000000000000000000008152600401610f6990612bfd565b60405180910390fd5b6000600660008481526020019081526020016000208054610f9290612f56565b80601f0160208091040260200160405190810160405280929190818152602001828054610fbe90612f56565b801561100b5780601f10610fe05761010080835404028352916020019161100b565b820191906000526020600020905b815481529060010190602001808311610fee57829003601f168201915b50505050509050600061101c611745565b9050600081511415611032578192505050611075565b60008251111561106757808260405160200161104f9291906129d3565b60405160208183030381529060405292505050611075565b6110708461175c565b925050505b919050565b6000600960009054906101000a900473ffffffffffffffffffffffffffffffffffffffff1673ffffffffffffffffffffffffffffffffffffffff163373ffffffffffffffffffffffffffffffffffffffff16146110d657600080fd5b6110df83610977565b6110e857600080fd5b6110f26007611803565b60006110fe6007611819565b9050600a60008573ffffffffffffffffffffffffffffffffffffffff1673ffffffffffffffffffffffffffffffffffffffff1681526020019081526020016000208190806001815401808255809150506001900390600052602060002001600090919091909150556111708482611827565b61117a8184611845565b8091505092915050565b6000600560008473ffffffffffffffffffffffffffffffffffffffff1673ffffffffffffffffffffffffffffffffffffffff16815260200190815260200160002060008373ffffffffffffffffffffffffffffffffffffffff1673ffffffffffffffffffffffffffffffffffffffff16815260200190815260200160002060009054906101000a900460ff16905092915050565b60007f01ffc9a7000000000000000000000000000000000000000000000000000000007bffffffffffffffffffffffffffffffffffffffffffffffffffffffff1916827bffffffffffffffffffffffffffffffffffffffffffffffffffffffff1916149050919050565b60008073ffffffffffffffffffffffffffffffffffffffff166002600084815260200190815260200160002060009054906101000a900473ffffffffffffffffffffffffffffffffffffffff1673ffffffffffffffffffffffffffffffffffffffff1614159050919050565b600033905090565b816004600083815260200190815260200160002060006101000a81548173ffffffffffffffffffffffffffffffffffffffff021916908373ffffffffffffffffffffffffffffffffffffffff160217905550808273ffffffffffffffffffffffffffffffffffffffff1661136983610a90565b73ffffffffffffffffffffffffffffffffffffffff167f8c5be1e5ebec7d5bd14f71427d1e84f3dd0314c0f7b2291e5b200ac8c7c3b92560405160405180910390a45050565b60006113ba82611282565b6113f9576040517f08c379a00000000000000000000000000000000000000000000000000000000081526004016113f090612b3d565b60405180910390fd5b600061140483610a90565b90508073ffffffffffffffffffffffffffffffffffffffff168473ffffffffffffffffffffffffffffffffffffffff16148061147357508373ffffffffffffffffffffffffffffffffffffffff1661145b8461058d565b73ffffffffffffffffffffffffffffffffffffffff16145b8061148457506114838185611184565b5b91505092915050565b8273ffffffffffffffffffffffffffffffffffffffff166114ad82610a90565b73ffffffffffffffffffffffffffffffffffffffff1614611503576040517f08c379a00000000000000000000000000000000000000000000000000000000081526004016114fa90612c3d565b60405180910390fd5b600073ffffffffffffffffffffffffffffffffffffffff168273ffffffffffffffffffffffffffffffffffffffff161415611573576040517f08c379a000000000000000000000000000000000000000000000000000000000815260040161156a90612afd565b60405180910390fd5b61157e8383836118b9565b6115896000826112f6565b6001600360008573ffffffffffffffffffffffffffffffffffffffff1673ffffffffffffffffffffffffffffffffffffffff16815260200190815260200160002060008282546115d99190612e6c565b925050819055506001600360008473ffffffffffffffffffffffffffffffffffffffff1673ffffffffffffffffffffffffffffffffffffffff16815260200190815260200160002060008282546116309190612de5565b92505081905550816002600083815260200190815260200160002060006101000a81548173ffffffffffffffffffffffffffffffffffffffff021916908373ffffffffffffffffffffffffffffffffffffffff160217905550808273ffffffffffffffffffffffffffffffffffffffff168473ffffffffffffffffffffffffffffffffffffffff167fddf252ad1be2c89b69c2b068fc378daa952ba7f163c4a11628f55a4df523b3ef60405160405180910390a4505050565b6116f484848461148d565b611700848484846118be565b61173f576040517f08c379a000000000000000000000000000000000000000000000000000000000815260040161173690612abd565b60405180910390fd5b50505050565b606060405180602001604052806000815250905090565b606061176782611282565b6117a6576040517f08c379a000000000000000000000000000000000000000000000000000000000815260040161179d90612c5d565b60405180910390fd5b60006117b0611745565b905060008151116117d057604051806020016040528060008152506117fb565b806117da84611a55565b6040516020016117eb9291906129d3565b6040516020818303038152906040525b915050919050565b6001816000016000828254019250508190555050565b600081600001549050919050565b611841828260405180602001604052806000815250611c02565b5050565b61184e82611282565b61188d576040517f08c379a000000000000000000000000000000000000000000000000000000000815260040161188490612bbd565b60405180910390fd5b806006600084815260200190815260200160002090805190602001906118b4929190611e3e565b505050565b505050565b60006118df8473ffffffffffffffffffffffffffffffffffffffff16611c5d565b15611a48578373ffffffffffffffffffffffffffffffffffffffff1663150b7a026119086112ee565b8786866040518563ffffffff1660e01b815260040161192a9493929190612a12565b602060405180830381600087803b15801561194457600080fd5b505af192505050801561197557506040513d601f19601f82011682018060405250810190611972919061223e565b60015b6119f8573d80600081146119a5576040519150601f19603f3d011682016040523d82523d6000602084013e6119aa565b606091505b506000815114156119f0576040517f08c379a00000000000000000000000000000000000000000000000000000000081526004016119e790612abd565b60405180910390fd5b805181602001fd5b63150b7a0260e01b7bffffffffffffffffffffffffffffffffffffffffffffffffffffffff1916817bffffffffffffffffffffffffffffffffffffffffffffffffffffffff191614915050611a4d565b600190505b949350505050565b60606000821415611a9d576040518060400160405280600181526020017f30000000000000000000000000000000000000000000000000000000000000008152509050611bfd565b600082905060005b60008214611acf578080611ab890612f88565b915050600a82611ac89190612e3b565b9150611aa5565b60008167ffffffffffffffff811115611b11577f4e487b7100000000000000000000000000000000000000000000000000000000600052604160045260246000fd5b6040519080825280601f01601f191660200182016040528015611b435781602001600182028036833780820191505090505b5090505b60008514611bf657600182611b5c9190612e6c565b9150600a85611b6b9190612fd1565b6030611b779190612de5565b60f81b818381518110611bb3577f4e487b7100000000000000000000000000000000000000000000000000000000600052603260045260246000fd5b60200101907effffffffffffffffffffffffffffffffffffffffffffffffffffffffffffff1916908160001a905350600a85611bef9190612e3b565b9450611b47565b8093505050505b919050565b611c0c8383611c70565b611c1960008484846118be565b611c58576040517f08c379a0000000000000000000000000000000000000000000000000000000008152600401611c4f90612abd565b60405180910390fd5b505050565b600080823b905060008111915050919050565b600073ffffffffffffffffffffffffffffffffffffffff168273ffffffffffffffffffffffffffffffffffffffff161415611ce0576040517f08c379a0000000000000000000000000000000000000000000000000000000008152600401611cd790612bdd565b60405180910390fd5b611ce981611282565b15611d29576040517f08c379a0000000000000000000000000000000000000000000000000000000008152600401611d2090612add565b60405180910390fd5b611d35600083836118b9565b6001600360008473ffffffffffffffffffffffffffffffffffffffff1673ffffffffffffffffffffffffffffffffffffffff1681526020019081526020016000206000828254611d859190612de5565b92505081905550816002600083815260200190815260200160002060006101000a81548173ffffffffffffffffffffffffffffffffffffffff021916908373ffffffffffffffffffffffffffffffffffffffff160217905550808273ffffffffffffffffffffffffffffffffffffffff16600073ffffffffffffffffffffffffffffffffffffffff167fddf252ad1be2c89b69c2b068fc378daa952ba7f163c4a11628f55a4df523b3ef60405160405180910390a45050565b828054611e4a90612f56565b90600052602060002090601f016020900481019282611e6c5760008555611eb3565b82601f10611e8557805160ff1916838001178555611eb3565b82800160010185558215611eb3579182015b82811115611eb2578251825591602001919060010190611e97565b5b509050611ec09190611ec4565b5090565b5b80821115611edd576000816000905550600101611ec5565b5090565b6000611ef4611eef84612d09565b612cd8565b905082815260208101848484011115611f0c57600080fd5b611f17848285612f14565b509392505050565b6000611f32611f2d84612d39565b612cd8565b905082815260208101848484011115611f4a57600080fd5b611f55848285612f14565b509392505050565b600081359050611f6c816130cf565b92915050565b600081359050611f81816130e6565b92915050565b600081359050611f96816130fd565b92915050565b600081519050611fab816130fd565b92915050565b600082601f830112611fc257600080fd5b8135611fd2848260208601611ee1565b91505092915050565b600082601f830112611fec57600080fd5b8135611ffc848260208601611f1f565b91505092915050565b60008135905061201481613114565b92915050565b60006020828403121561202c57600080fd5b600061203a84828501611f5d565b91505092915050565b6000806040838503121561205657600080fd5b600061206485828601611f5d565b925050602061207585828601611f5d565b9150509250929050565b60008060006060848603121561209457600080fd5b60006120a286828701611f5d565b93505060206120b386828701611f5d565b92505060406120c486828701612005565b9150509250925092565b600080600080608085870312156120e457600080fd5b60006120f287828801611f5d565b945050602061210387828801611f5d565b935050604061211487828801612005565b925050606085013567ffffffffffffffff81111561213157600080fd5b61213d87828801611fb1565b91505092959194509250565b6000806040838503121561215c57600080fd5b600061216a85828601611f5d565b925050602061217b85828601611f72565b9150509250929050565b6000806040838503121561219857600080fd5b60006121a685828601611f5d565b925050602083013567ffffffffffffffff8111156121c357600080fd5b6121cf85828601611fdb565b9150509250929050565b600080604083850312156121ec57600080fd5b60006121fa85828601611f5d565b925050602061220b85828601612005565b9150509250929050565b60006020828403121561222757600080fd5b600061223584828501611f87565b91505092915050565b60006020828403121561225057600080fd5b600061225e84828501611f9c565b91505092915050565b60006020828403121561227957600080fd5b600061228784828501612005565b91505092915050565b600061229c83836129b5565b60208301905092915050565b6122b181612ea0565b82525050565b60006122c282612d79565b6122cc8185612da7565b93506122d783612d69565b8060005b838110156123085781516122ef8882612290565b97506122fa83612d9a565b9250506001810190506122db565b5085935050505092915050565b61231e81612eb2565b82525050565b600061232f82612d84565b6123398185612db8565b9350612349818560208601612f23565b612352816130be565b840191505092915050565b600061236882612d8f565b6123728185612dc9565b9350612382818560208601612f23565b61238b816130be565b840191505092915050565b60006123a182612d8f565b6123ab8185612dda565b93506123bb818560208601612f23565b80840191505092915050565b60006123d4603283612dc9565b91507f4552433732313a207472616e7366657220746f206e6f6e20455243373231526560008301527f63656976657220696d706c656d656e74657200000000000000000000000000006020830152604082019050919050565b600061243a601c83612dc9565b91507f4552433732313a20746f6b656e20616c7265616479206d696e746564000000006000830152602082019050919050565b600061247a602483612dc9565b91507f4552433732313a207472616e7366657220746f20746865207a65726f2061646460008301527f72657373000000000000000000000000000000000000000000000000000000006020830152604082019050919050565b60006124e0601983612dc9565b91507f4552433732313a20617070726f766520746f2063616c6c6572000000000000006000830152602082019050919050565b6000612520602c83612dc9565b91507f4552433732313a206f70657261746f7220717565727920666f72206e6f6e657860008301527f697374656e7420746f6b656e00000000000000000000000000000000000000006020830152604082019050919050565b6000612586603883612dc9565b91507f4552433732313a20617070726f76652063616c6c6572206973206e6f74206f7760008301527f6e6572206e6f7220617070726f76656420666f7220616c6c00000000000000006020830152604082019050919050565b60006125ec602a83612dc9565b91507f4552433732313a2062616c616e636520717565727920666f7220746865207a6560008301527f726f2061646472657373000000000000000000000000000000000000000000006020830152604082019050919050565b6000612652602983612dc9565b91507f4552433732313a206f776e657220717565727920666f72206e6f6e657869737460008301527f656e7420746f6b656e00000000000000000000000000000000000000000000006020830152604082019050919050565b60006126b8602e83612dc9565b91507f45524337323155524953746f726167653a2055524920736574206f66206e6f6e60008301527f6578697374656e7420746f6b656e0000000000000000000000000000000000006020830152604082019050919050565b600061271e602083612dc9565b91507f4552433732313a206d696e7420746f20746865207a65726f20616464726573736000830152602082019050919050565b600061275e603183612dc9565b91507f45524337323155524953746f726167653a2055524920717565727920666f722060008301527f6e6f6e6578697374656e7420746f6b656e0000000000000000000000000000006020830152604082019050919050565b60006127c4602c83612dc9565b91507f4552433732313a20617070726f76656420717565727920666f72206e6f6e657860008301527f697374656e7420746f6b656e00000000000000000000000000000000000000006020830152604082019050919050565b600061282a602983612dc9565b91507f4552433732313a207472616e73666572206f6620746f6b656e2074686174206960008301527f73206e6f74206f776e00000000000000000000000000000000000000000000006020830152604082019050919050565b6000612890602f83612dc9565b91507f4552433732314d657461646174613a2055524920717565727920666f72206e6f60008301527f6e6578697374656e7420746f6b656e00000000000000000000000000000000006020830152604082019050919050565b60006128f6602183612dc9565b91507f4552433732313a20617070726f76616c20746f2063757272656e74206f776e6560008301527f72000000000000000000000000000000000000000000000000000000000000006020830152604082019050919050565b600061295c603183612dc9565b91507f4552433732313a207472616e736665722063616c6c6572206973206e6f74206f60008301527f776e6572206e6f7220617070726f7665640000000000000000000000000000006020830152604082019050919050565b6129be81612f0a565b82525050565b6129cd81612f0a565b82525050565b60006129df8285612396565b91506129eb8284612396565b91508190509392505050565b6000602082019050612a0c60008301846122a8565b92915050565b6000608082019050612a2760008301876122a8565b612a3460208301866122a8565b612a4160408301856129c4565b8181036060830152612a538184612324565b905095945050505050565b60006020820190508181036000830152612a7881846122b7565b905092915050565b6000602082019050612a956000830184612315565b92915050565b60006020820190508181036000830152612ab5818461235d565b905092915050565b60006020820190508181036000830152612ad6816123c7565b9050919050565b60006020820190508181036000830152612af68161242d565b9050919050565b60006020820190508181036000830152612b168161246d565b9050919050565b60006020820190508181036000830152612b36816124d3565b9050919050565b60006020820190508181036000830152612b5681612513565b9050919050565b60006020820190508181036000830152612b7681612579565b9050919050565b60006020820190508181036000830152612b96816125df565b9050919050565b60006020820190508181036000830152612bb681612645565b9050919050565b60006020820190508181036000830152612bd6816126ab565b9050919050565b60006020820190508181036000830152612bf681612711565b9050919050565b60006020820190508181036000830152612c1681612751565b9050919050565b60006020820190508181036000830152612c36816127b7565b9050919050565b60006020820190508181036000830152612c568161281d565b9050919050565b60006020820190508181036000830152612c7681612883565b9050919050565b60006020820190508181036000830152612c96816128e9565b9050919050565b60006020820190508181036000830152612cb68161294f565b9050919050565b6000602082019050612cd260008301846129c4565b92915050565b6000604051905081810181811067ffffffffffffffff82111715612cff57612cfe61308f565b5b8060405250919050565b600067ffffffffffffffff821115612d2457612d2361308f565b5b601f19601f8301169050602081019050919050565b600067ffffffffffffffff821115612d5457612d5361308f565b5b601f19601f8301169050602081019050919050565b6000819050602082019050919050565b600081519050919050565b600081519050919050565b600081519050919050565b6000602082019050919050565b600082825260208201905092915050565b600082825260208201905092915050565b600082825260208201905092915050565b600081905092915050565b6000612df082612f0a565b9150612dfb83612f0a565b9250827fffffffffffffffffffffffffffffffffffffffffffffffffffffffffffffffff03821115612e3057612e2f613002565b5b828201905092915050565b6000612e4682612f0a565b9150612e5183612f0a565b925082612e6157612e60613031565b5b828204905092915050565b6000612e7782612f0a565b9150612e8283612f0a565b925082821015612e9557612e94613002565b5b828203905092915050565b6000612eab82612eea565b9050919050565b60008115159050919050565b60007fffffffff0000000000000000000000000000000000000000000000000000000082169050919050565b600073ffffffffffffffffffffffffffffffffffffffff82169050919050565b6000819050919050565b82818337600083830152505050565b60005b83811015612f41578082015181840152602081019050612f26565b83811115612f50576000848401525b50505050565b60006002820490506001821680612f6e57607f821691505b60208210811415612f8257612f81613060565b5b50919050565b6000612f9382612f0a565b91507fffffffffffffffffffffffffffffffffffffffffffffffffffffffffffffffff821415612fc657612fc5613002565b5b600182019050919050565b6000612fdc82612f0a565b9150612fe783612f0a565b925082612ff757612ff6613031565b5b828206905092915050565b7f4e487b7100000000000000000000000000000000000000000000000000000000600052601160045260246000fd5b7f4e487b7100000000000000000000000000000000000000000000000000000000600052601260045260246000fd5b7f4e487b7100000000000000000000000000000000000000000000000000000000600052602260045260246000fd5b7f4e487b7100000000000000000000000000000000000000000000000000000000600052604160045260246000fd5b6000601f19601f8301169050919050565b6130d881612ea0565b81146130e357600080fd5b50565b6130ef81612eb2565b81146130fa57600080fd5b50565b61310681612ebe565b811461311157600080fd5b50565b61311d81612f0a565b811461312857600080fd5b5056fea2646970667358221220a28d1f9be1e74873af708942066bae0833c1abf01879ac9013c33b5d6df2db8d64736f6c63430008000033",
  "immutableReferences": {},
  "source": "pragma solidity <=0.8.0;\r\n\r\nimport \"@openzeppelin/contracts/token/ERC721/extensions/ERC721URIStorage.sol\";\r\nimport \"@openzeppelin/contracts/utils/Counters.sol\";\r\n\r\ncontract GameItem is ERC721URIStorage { using Counters for Counters.Counter;\r\n    Counters.Counter private _tokenIds; \r\n\r\n\r\n\r\n address[]  private wlist;\r\n     address admin;\r\n     mapping(address => uint256[]) private balances; \r\n     \r\n    constructor(string memory name,\r\n        string memory symbol) ERC721(name, symbol) public {\r\n            admin=msg.sender;\r\n            \r\n    }\r\n\r\n    function awardItem(address player, string memory tokenURI) public returns (uint256) {\r\n    \r\n    require(msg.sender==admin);\r\n    require(inWlist(player));\r\n    _tokenIds.increment();\r\n\r\n        uint256 newItemId = _tokenIds.current();\r\n       balances[player].push(newItemId);\r\n        _safeMint(player, newItemId);\r\n        _setTokenURI(newItemId, tokenURI);\r\n\r\n        return newItemId;\r\n    }\r\n    \r\n    function TransferFrom (address from, address to, uint256 tokenId)public \r\n    {\r\n        require(inWlist(to));\r\n        safeTransferFrom(from, to, tokenId);\r\n        \r\n    }\r\n\r\n function TransferFrom(address from, address to, uint256 tokenId,bytes  memory _data)public {\r\n    require(inWlist(to));\r\n        safeTransferFrom(from, to, tokenId,_data);\r\n}\r\n    \r\n   \r\n    \r\n    function inWlist(address add) public  view returns(bool){\r\n         for (uint i = 0; i<wlist.length; i++){\r\n           if(wlist[i]==add){\r\n               \r\n               \r\n          \r\n          return true;\r\n               \r\n           }\r\n   }\r\n       return false;\r\n   }\r\n   \r\n       function addtoWlist(address add)public{\r\n        require(admin==msg.sender);\r\n        wlist.push(add);\r\n    }\r\n  function removefromWlist(address add)public{\r\n       for (uint i = 0; i<wlist.length; i++){\r\n           if(wlist[i]==add){\r\n           delete wlist[i];\r\n          return;}\r\n        }\r\n        \r\n    }\r\n    function ownedTokens (address add)public view returns ( uint256[] memory){\r\n        return balances[add];\r\n    }\r\n}",
  "sourcePath": "C:\\Users\\dahom\\Desktop\\ABO\\Study\\InternShip\\Ethereum\\projects\\BackEnd\\contracts\\GameItem.sol",
  "compiler": {
    "name": "solc",
    "version": "0.8.0+commit.c7dfd78e.Emscripten.clang"
  },
  "schemaVersion": "3.4.3",
  "updatedAt": "2021-09-17T16:10:57.248Z",
  "devdoc": {
    "kind": "dev",
    "methods": {
      "approve(address,uint256)": {
        "details": "See {IERC721-approve}."
      },
      "balanceOf(address)": {
        "details": "See {IERC721-balanceOf}."
      },
      "getApproved(uint256)": {
        "details": "See {IERC721-getApproved}."
      },
      "isApprovedForAll(address,address)": {
        "details": "See {IERC721-isApprovedForAll}."
      },
      "name()": {
        "details": "See {IERC721Metadata-name}."
      },
      "ownerOf(uint256)": {
        "details": "See {IERC721-ownerOf}."
      },
      "safeTransferFrom(address,address,uint256)": {
        "details": "See {IERC721-safeTransferFrom}."
      },
      "safeTransferFrom(address,address,uint256,bytes)": {
        "details": "See {IERC721-safeTransferFrom}."
      },
      "setApprovalForAll(address,bool)": {
        "details": "See {IERC721-setApprovalForAll}."
      },
      "supportsInterface(bytes4)": {
        "details": "See {IERC165-supportsInterface}."
      },
      "symbol()": {
        "details": "See {IERC721Metadata-symbol}."
      },
      "tokenURI(uint256)": {
        "details": "See {IERC721Metadata-tokenURI}."
      },
      "transferFrom(address,address,uint256)": {
        "details": "See {IERC721-transferFrom}."
      }
    },
    "version": 1
  },
  "userdoc": {
    "kind": "user",
    "methods": {},
    "version": 1
  }
}