{
  "contractName": "SimpleToken",
  "abi": [
    {
      "inputs": [
        {
          "internalType": "string",
          "name": "name",
          "type": "string"
        },
        {
          "internalType": "string",
          "name": "symbol",
          "type": "string"
        },
        {
          "internalType": "uint256",
          "name": "initialSupply",
          "type": "uint256"
        }
      ],
      "stateMutability": "nonpayable",
      "type": "constructor"
    },
    {
      "anonymous": false,
      "inputs": [
        {
          "indexed": true,
          "internalType": "address",
          "name": "owner",
          "type": "address"
        },
        {
          "indexed": true,
          "internalType": "address",
          "name": "spender",
          "type": "address"
        },
        {
          "indexed": false,
          "internalType": "uint256",
          "name": "value",
          "type": "uint256"
        }
      ],
      "name": "Approval",
      "type": "event"
    },
    {
      "anonymous": false,
      "inputs": [
        {
          "indexed": true,
          "internalType": "address",
          "name": "from",
          "type": "address"
        },
        {
          "indexed": true,
          "internalType": "address",
          "name": "to",
          "type": "address"
        },
        {
          "indexed": false,
          "internalType": "uint256",
          "name": "value",
          "type": "uint256"
        }
      ],
      "name": "Transfer",
      "type": "event"
    },
    {
      "inputs": [
        {
          "internalType": "address",
          "name": "owner",
          "type": "address"
        },
        {
          "internalType": "address",
          "name": "spender",
          "type": "address"
        }
      ],
      "name": "allowance",
      "outputs": [
        {
          "internalType": "uint256",
          "name": "",
          "type": "uint256"
        }
      ],
      "stateMutability": "view",
      "type": "function"
    },
    {
      "inputs": [
        {
          "internalType": "address",
          "name": "spender",
          "type": "address"
        },
        {
          "internalType": "uint256",
          "name": "amount",
          "type": "uint256"
        }
      ],
      "name": "approve",
      "outputs": [
        {
          "internalType": "bool",
          "name": "",
          "type": "bool"
        }
      ],
      "stateMutability": "nonpayable",
      "type": "function"
    },
    {
      "inputs": [
        {
          "internalType": "address",
          "name": "account",
          "type": "address"
        }
      ],
      "name": "balanceOf",
      "outputs": [
        {
          "internalType": "uint256",
          "name": "",
          "type": "uint256"
        }
      ],
      "stateMutability": "view",
      "type": "function"
    },
    {
      "inputs": [],
      "name": "decimals",
      "outputs": [
        {
          "internalType": "uint8",
          "name": "",
          "type": "uint8"
        }
      ],
      "stateMutability": "view",
      "type": "function"
    },
    {
      "inputs": [
        {
          "internalType": "address",
          "name": "spender",
          "type": "address"
        },
        {
          "internalType": "uint256",
          "name": "subtractedValue",
          "type": "uint256"
        }
      ],
      "name": "decreaseAllowance",
      "outputs": [
        {
          "internalType": "bool",
          "name": "",
          "type": "bool"
        }
      ],
      "stateMutability": "nonpayable",
      "type": "function"
    },
    {
      "inputs": [
        {
          "internalType": "address",
          "name": "spender",
          "type": "address"
        },
        {
          "internalType": "uint256",
          "name": "addedValue",
          "type": "uint256"
        }
      ],
      "name": "increaseAllowance",
      "outputs": [
        {
          "internalType": "bool",
          "name": "",
          "type": "bool"
        }
      ],
      "stateMutability": "nonpayable",
      "type": "function"
    },
    {
      "inputs": [],
      "name": "name",
      "outputs": [
        {
          "internalType": "string",
          "name": "",
          "type": "string"
        }
      ],
      "stateMutability": "view",
      "type": "function"
    },
    {
      "inputs": [],
      "name": "symbol",
      "outputs": [
        {
          "internalType": "string",
          "name": "",
          "type": "string"
        }
      ],
      "stateMutability": "view",
      "type": "function"
    },
    {
      "inputs": [],
      "name": "totalSupply",
      "outputs": [
        {
          "internalType": "uint256",
          "name": "",
          "type": "uint256"
        }
      ],
      "stateMutability": "view",
      "type": "function"
    },
    {
      "inputs": [
        {
          "internalType": "uint256",
          "name": "",
          "type": "uint256"
        }
      ],
      "name": "wlist",
      "outputs": [
        {
          "internalType": "address",
          "name": "",
          "type": "address"
        }
      ],
      "stateMutability": "view",
      "type": "function"
    },
    {
      "inputs": [
        {
          "internalType": "address",
          "name": "sender",
          "type": "address"
        },
        {
          "internalType": "address",
          "name": "recipient",
          "type": "address"
        },
        {
          "internalType": "uint256",
          "name": "amount",
          "type": "uint256"
        }
      ],
      "name": "transferFrom",
      "outputs": [
        {
          "internalType": "bool",
          "name": "",
          "type": "bool"
        }
      ],
      "stateMutability": "nonpayable",
      "type": "function"
    },
    {
      "inputs": [
        {
          "internalType": "address",
          "name": "recipient",
          "type": "address"
        },
        {
          "internalType": "uint256",
          "name": "amount",
          "type": "uint256"
        }
      ],
      "name": "transfer",
      "outputs": [
        {
          "internalType": "bool",
          "name": "",
          "type": "bool"
        }
      ],
      "stateMutability": "nonpayable",
      "type": "function"
    },
    {
      "inputs": [
        {
          "internalType": "address",
          "name": "add",
          "type": "address"
        }
      ],
      "name": "addtoWlist",
      "outputs": [],
      "stateMutability": "nonpayable",
      "type": "function"
    },
    {
      "inputs": [
        {
          "internalType": "address",
          "name": "add",
          "type": "address"
        }
      ],
      "name": "removefromWlist",
      "outputs": [],
      "stateMutability": "nonpayable",
      "type": "function"
    }
  ],
  "bytecode": "0x60806040523480156200001157600080fd5b5060405162001d5d38038062001d5d8339818101604052810190620000379190620003bb565b828281600390805190602001906200005192919062000282565b5080600490805190602001906200006a92919062000282565b5050506200007e336200009960201b60201c565b620000903382620000ff60201b60201c565b505050620006c7565b6005819080600181540180825580915050600190039060005260206000200160009091909190916101000a81548173ffffffffffffffffffffffffffffffffffffffff021916908373ffffffffffffffffffffffffffffffffffffffff16021790555050565b600073ffffffffffffffffffffffffffffffffffffffff168273ffffffffffffffffffffffffffffffffffffffff16141562000172576040517f08c379a0000000000000000000000000000000000000000000000000000000008152600401620001699062000496565b60405180910390fd5b62000186600083836200027860201b60201c565b80600260008282546200019a91906200054d565b92505081905550806000808473ffffffffffffffffffffffffffffffffffffffff1673ffffffffffffffffffffffffffffffffffffffff1681526020019081526020016000206000828254620001f191906200054d565b925050819055508173ffffffffffffffffffffffffffffffffffffffff16600073ffffffffffffffffffffffffffffffffffffffff167fddf252ad1be2c89b69c2b068fc378daa952ba7f163c4a11628f55a4df523b3ef83604051620002589190620004b8565b60405180910390a362000274600083836200027d60201b60201c565b5050565b505050565b505050565b8280546200029090620005ea565b90600052602060002090601f016020900481019282620002b4576000855562000300565b82601f10620002cf57805160ff191683800117855562000300565b8280016001018555821562000300579182015b82811115620002ff578251825591602001919060010190620002e2565b5b5090506200030f919062000313565b5090565b5b808211156200032e57600081600090555060010162000314565b5090565b600062000349620003438462000509565b620004d5565b9050828152602081018484840111156200036257600080fd5b6200036f848285620005b4565b509392505050565b600082601f8301126200038957600080fd5b81516200039b84826020860162000332565b91505092915050565b600081519050620003b581620006ad565b92915050565b600080600060608486031215620003d157600080fd5b600084015167ffffffffffffffff811115620003ec57600080fd5b620003fa8682870162000377565b935050602084015167ffffffffffffffff8111156200041857600080fd5b620004268682870162000377565b92505060406200043986828701620003a4565b9150509250925092565b600062000452601f836200053c565b91507f45524332303a206d696e7420746f20746865207a65726f2061646472657373006000830152602082019050919050565b6200049081620005aa565b82525050565b60006020820190508181036000830152620004b18162000443565b9050919050565b6000602082019050620004cf600083018462000485565b92915050565b6000604051905081810181811067ffffffffffffffff82111715620004ff57620004fe6200067e565b5b8060405250919050565b600067ffffffffffffffff8211156200052757620005266200067e565b5b601f19601f8301169050602081019050919050565b600082825260208201905092915050565b60006200055a82620005aa565b91506200056783620005aa565b9250827fffffffffffffffffffffffffffffffffffffffffffffffffffffffffffffffff038211156200059f576200059e62000620565b5b828201905092915050565b6000819050919050565b60005b83811015620005d4578082015181840152602081019050620005b7565b83811115620005e4576000848401525b50505050565b600060028204905060018216806200060357607f821691505b602082108114156200061a57620006196200064f565b5b50919050565b7f4e487b7100000000000000000000000000000000000000000000000000000000600052601160045260246000fd5b7f4e487b7100000000000000000000000000000000000000000000000000000000600052602260045260246000fd5b7f4e487b7100000000000000000000000000000000000000000000000000000000600052604160045260246000fd5b620006b881620005aa565b8114620006c457600080fd5b50565b61168680620006d76000396000f3fe608060405234801561001057600080fd5b50600436106100ea5760003560e01c8063395093511161008c57806395d89b411161006657806395d89b4114610271578063a457c2d71461028f578063a9059cbb146102bf578063dd62ed3e146102ef576100ea565b806339509351146101e157806370a08231146102115780638c25e4fd14610241576100ea565b80631ad8d9fc116100c85780631ad8d9fc1461015b57806323b872dd146101775780632a6a0a77146101a7578063313ce567146101c3576100ea565b806306fdde03146100ef578063095ea7b31461010d57806318160ddd1461013d575b600080fd5b6100f761031f565b6040516101049190611326565b60405180910390f35b61012760048036038101906101229190610fb2565b6103b1565b604051610134919061130b565b60405180910390f35b6101456103cf565b6040516101529190611408565b60405180910390f35b61017560048036038101906101709190610efe565b6103d9565b005b610191600480360381019061018c9190610f63565b61043f565b60405161019e919061130b565b60405180910390f35b6101c160048036038101906101bc9190610efe565b610521565b005b6101cb61064e565b6040516101d89190611423565b60405180910390f35b6101fb60048036038101906101f69190610fb2565b610657565b604051610208919061130b565b60405180910390f35b61022b60048036038101906102269190610efe565b610703565b6040516102389190611408565b60405180910390f35b61025b60048036038101906102569190610fee565b61074b565b60405161026891906112f0565b60405180910390f35b61027961078a565b6040516102869190611326565b60405180910390f35b6102a960048036038101906102a49190610fb2565b61081c565b6040516102b6919061130b565b60405180910390f35b6102d960048036038101906102d49190610fb2565b610907565b6040516102e6919061130b565b60405180910390f35b61030960048036038101906103049190610f27565b6109ef565b6040516103169190611408565b60405180910390f35b60606003805461032e90611538565b80601f016020809104026020016040519081016040528092919081815260200182805461035a90611538565b80156103a75780601f1061037c576101008083540402835291602001916103a7565b820191906000526020600020905b81548152906001019060200180831161038a57829003601f168201915b5050505050905090565b60006103c56103be610a76565b8484610a7e565b6001905092915050565b6000600254905090565b6005819080600181540180825580915050600190039060005260206000200160009091909190916101000a81548173ffffffffffffffffffffffffffffffffffffffff021916908373ffffffffffffffffffffffffffffffffffffffff16021790555050565b600080600090505b600580549050811015610514578373ffffffffffffffffffffffffffffffffffffffff16600582815481106104a5577f4e487b7100000000000000000000000000000000000000000000000000000000600052603260045260246000fd5b9060005260206000200160009054906101000a900473ffffffffffffffffffffffffffffffffffffffff1673ffffffffffffffffffffffffffffffffffffffff161415610501576104f7858585610c49565b600191505061051a565b808061050c9061156a565b915050610447565b50600090505b9392505050565b60005b600580549050811015610649578173ffffffffffffffffffffffffffffffffffffffff1660058281548110610582577f4e487b7100000000000000000000000000000000000000000000000000000000600052603260045260246000fd5b9060005260206000200160009054906101000a900473ffffffffffffffffffffffffffffffffffffffff1673ffffffffffffffffffffffffffffffffffffffff1614156106365760058181548110610603577f4e487b7100000000000000000000000000000000000000000000000000000000600052603260045260246000fd5b9060005260206000200160006101000a81549073ffffffffffffffffffffffffffffffffffffffff02191690555061064b565b80806106419061156a565b915050610524565b505b50565b60006012905090565b60006106f9610664610a76565b848460016000610672610a76565b73ffffffffffffffffffffffffffffffffffffffff1673ffffffffffffffffffffffffffffffffffffffff16815260200190815260200160002060008873ffffffffffffffffffffffffffffffffffffffff1673ffffffffffffffffffffffffffffffffffffffff168152602001908152602001600020546106f4919061145a565b610a7e565b6001905092915050565b60008060008373ffffffffffffffffffffffffffffffffffffffff1673ffffffffffffffffffffffffffffffffffffffff168152602001908152602001600020549050919050565b6005818154811061075b57600080fd5b906000526020600020016000915054906101000a900473ffffffffffffffffffffffffffffffffffffffff1681565b60606004805461079990611538565b80601f01602080910402602001604051908101604052809291908181526020018280546107c590611538565b80156108125780601f106107e757610100808354040283529160200191610812565b820191906000526020600020905b8154815290600101906020018083116107f557829003601f168201915b5050505050905090565b6000806001600061082b610a76565b73ffffffffffffffffffffffffffffffffffffffff1673ffffffffffffffffffffffffffffffffffffffff16815260200190815260200160002060008573ffffffffffffffffffffffffffffffffffffffff1673ffffffffffffffffffffffffffffffffffffffff168152602001908152602001600020549050828110156108e8576040517f08c379a00000000000000000000000000000000000000000000000000000000081526004016108df906113e8565b60405180910390fd5b6108fc6108f3610a76565b85858403610a7e565b600191505092915050565b600080600090505b6005805490508110156109e3578373ffffffffffffffffffffffffffffffffffffffff166005828154811061096d577f4e487b7100000000000000000000000000000000000000000000000000000000600052603260045260246000fd5b9060005260206000200160009054906101000a900473ffffffffffffffffffffffffffffffffffffffff1673ffffffffffffffffffffffffffffffffffffffff1614156109d0576109c66109bf610a76565b8585610c49565b60019150506109e9565b80806109db9061156a565b91505061090f565b50600090505b92915050565b6000600160008473ffffffffffffffffffffffffffffffffffffffff1673ffffffffffffffffffffffffffffffffffffffff16815260200190815260200160002060008373ffffffffffffffffffffffffffffffffffffffff1673ffffffffffffffffffffffffffffffffffffffff16815260200190815260200160002054905092915050565b600033905090565b600073ffffffffffffffffffffffffffffffffffffffff168373ffffffffffffffffffffffffffffffffffffffff161415610aee576040517f08c379a0000000000000000000000000000000000000000000000000000000008152600401610ae5906113c8565b60405180910390fd5b600073ffffffffffffffffffffffffffffffffffffffff168273ffffffffffffffffffffffffffffffffffffffff161415610b5e576040517f08c379a0000000000000000000000000000000000000000000000000000000008152600401610b5590611368565b60405180910390fd5b80600160008573ffffffffffffffffffffffffffffffffffffffff1673ffffffffffffffffffffffffffffffffffffffff16815260200190815260200160002060008473ffffffffffffffffffffffffffffffffffffffff1673ffffffffffffffffffffffffffffffffffffffff168152602001908152602001600020819055508173ffffffffffffffffffffffffffffffffffffffff168373ffffffffffffffffffffffffffffffffffffffff167f8c5be1e5ebec7d5bd14f71427d1e84f3dd0314c0f7b2291e5b200ac8c7c3b92583604051610c3c9190611408565b60405180910390a3505050565b600073ffffffffffffffffffffffffffffffffffffffff168373ffffffffffffffffffffffffffffffffffffffff161415610cb9576040517f08c379a0000000000000000000000000000000000000000000000000000000008152600401610cb0906113a8565b60405180910390fd5b600073ffffffffffffffffffffffffffffffffffffffff168273ffffffffffffffffffffffffffffffffffffffff161415610d29576040517f08c379a0000000000000000000000000000000000000000000000000000000008152600401610d2090611348565b60405180910390fd5b610d34838383610eca565b60008060008573ffffffffffffffffffffffffffffffffffffffff1673ffffffffffffffffffffffffffffffffffffffff16815260200190815260200160002054905081811015610dba576040517f08c379a0000000000000000000000000000000000000000000000000000000008152600401610db190611388565b60405180910390fd5b8181036000808673ffffffffffffffffffffffffffffffffffffffff1673ffffffffffffffffffffffffffffffffffffffff16815260200190815260200160002081905550816000808573ffffffffffffffffffffffffffffffffffffffff1673ffffffffffffffffffffffffffffffffffffffff1681526020019081526020016000206000828254610e4d919061145a565b925050819055508273ffffffffffffffffffffffffffffffffffffffff168473ffffffffffffffffffffffffffffffffffffffff167fddf252ad1be2c89b69c2b068fc378daa952ba7f163c4a11628f55a4df523b3ef84604051610eb19190611408565b60405180910390a3610ec4848484610ecf565b50505050565b505050565b505050565b600081359050610ee381611622565b92915050565b600081359050610ef881611639565b92915050565b600060208284031215610f1057600080fd5b6000610f1e84828501610ed4565b91505092915050565b60008060408385031215610f3a57600080fd5b6000610f4885828601610ed4565b9250506020610f5985828601610ed4565b9150509250929050565b600080600060608486031215610f7857600080fd5b6000610f8686828701610ed4565b9350506020610f9786828701610ed4565b9250506040610fa886828701610ee9565b9150509250925092565b60008060408385031215610fc557600080fd5b6000610fd385828601610ed4565b9250506020610fe485828601610ee9565b9150509250929050565b60006020828403121561100057600080fd5b600061100e84828501610ee9565b91505092915050565b611020816114b0565b82525050565b61102f816114c2565b82525050565b60006110408261143e565b61104a8185611449565b935061105a818560208601611505565b61106381611611565b840191505092915050565b600061107b602383611449565b91507f45524332303a207472616e7366657220746f20746865207a65726f206164647260008301527f65737300000000000000000000000000000000000000000000000000000000006020830152604082019050919050565b60006110e1602283611449565b91507f45524332303a20617070726f766520746f20746865207a65726f20616464726560008301527f73730000000000000000000000000000000000000000000000000000000000006020830152604082019050919050565b6000611147602683611449565b91507f45524332303a207472616e7366657220616d6f756e742065786365656473206260008301527f616c616e636500000000000000000000000000000000000000000000000000006020830152604082019050919050565b60006111ad602583611449565b91507f45524332303a207472616e736665722066726f6d20746865207a65726f20616460008301527f64726573730000000000000000000000000000000000000000000000000000006020830152604082019050919050565b6000611213602483611449565b91507f45524332303a20617070726f76652066726f6d20746865207a65726f2061646460008301527f72657373000000000000000000000000000000000000000000000000000000006020830152604082019050919050565b6000611279602583611449565b91507f45524332303a2064656372656173656420616c6c6f77616e63652062656c6f7760008301527f207a65726f0000000000000000000000000000000000000000000000000000006020830152604082019050919050565b6112db816114ee565b82525050565b6112ea816114f8565b82525050565b60006020820190506113056000830184611017565b92915050565b60006020820190506113206000830184611026565b92915050565b600060208201905081810360008301526113408184611035565b905092915050565b600060208201905081810360008301526113618161106e565b9050919050565b60006020820190508181036000830152611381816110d4565b9050919050565b600060208201905081810360008301526113a18161113a565b9050919050565b600060208201905081810360008301526113c1816111a0565b9050919050565b600060208201905081810360008301526113e181611206565b9050919050565b600060208201905081810360008301526114018161126c565b9050919050565b600060208201905061141d60008301846112d2565b92915050565b600060208201905061143860008301846112e1565b92915050565b600081519050919050565b600082825260208201905092915050565b6000611465826114ee565b9150611470836114ee565b9250827fffffffffffffffffffffffffffffffffffffffffffffffffffffffffffffffff038211156114a5576114a46115b3565b5b828201905092915050565b60006114bb826114ce565b9050919050565b60008115159050919050565b600073ffffffffffffffffffffffffffffffffffffffff82169050919050565b6000819050919050565b600060ff82169050919050565b60005b83811015611523578082015181840152602081019050611508565b83811115611532576000848401525b50505050565b6000600282049050600182168061155057607f821691505b60208210811415611564576115636115e2565b5b50919050565b6000611575826114ee565b91507fffffffffffffffffffffffffffffffffffffffffffffffffffffffffffffffff8214156115a8576115a76115b3565b5b600182019050919050565b7f4e487b7100000000000000000000000000000000000000000000000000000000600052601160045260246000fd5b7f4e487b7100000000000000000000000000000000000000000000000000000000600052602260045260246000fd5b6000601f19601f8301169050919050565b61162b816114b0565b811461163657600080fd5b50565b611642816114ee565b811461164d57600080fd5b5056fea2646970667358221220bd668942e91493e429f5a0e9c553133ab6734d2f65ee30400eeabbd881f924da64736f6c63430008000033",
  "immutableReferences": {},
  "source": "pragma solidity ^0.8.0;\r\npragma experimental ABIEncoderV2;\r\nimport \"@openzeppelin/contracts/token/ERC20/ERC20.sol\";\r\n\r\n/**\r\n * @title SimpleToken\r\n * @dev Very simple ERC20 Token example, where all tokens are pre-assigned to the creator.\r\n * Note they can later distribute these tokens as they wish using `transfer` and other\r\n * `ERC20` functions.\r\n * Based on https://github.com/OpenZeppelin/openzeppelin-contracts/blob/v2.5.1/contracts/examples/SimpleToken.sol\r\n */\r\n \r\ncontract SimpleToken is ERC20 {\r\n    /**\r\n     * @dev Constructor that gives msg.sender all of existing tokens.\r\n     */\r\n    \r\n     //uint256 _totalSupply;\r\n     address[]  public wlist;\r\n    constructor(\r\n        string memory name,\r\n        string memory symbol,\r\n        uint256 initialSupply\r\n    ) public ERC20(name, symbol) {\r\n      \r\n      addtoWlist(msg.sender);\r\n        _mint(msg.sender, initialSupply);\r\n    }\r\n   \r\n    function transferFrom(address sender, address recipient, uint256 amount) public virtual\r\n                                                override returns (bool) {\r\n        \r\n        \r\n             for (uint i = 0; i<wlist.length; i++){\r\n           if(wlist[i]==recipient){\r\n           _transfer(sender, recipient, amount);\r\n          return true;}}\r\n     \r\n       \r\n        return false;\r\n}\r\n function transfer(address recipient, uint256 amount) public virtual override returns (bool) {\r\n     \r\n     \r\n       for (uint i = 0; i<wlist.length; i++){\r\n           if(wlist[i]==recipient){\r\n           _transfer(_msgSender(), recipient, amount);\r\n          return true;}}\r\n     \r\n       \r\n        return false;\r\n    }\r\n    function addtoWlist(address add)public{\r\n        wlist.push(add);\r\n    }\r\n  function removefromWlist(address add)public{\r\n       for (uint i = 0; i<wlist.length; i++){\r\n           if(wlist[i]==add){\r\n           delete wlist[i];\r\n          return;}\r\n        }\r\n        \r\n    }\r\n\r\n}",
  "sourcePath": "C:\\Users\\dahom\\Desktop\\ABO\\Study\\InternShip\\Ethereum\\projects\\BackEnd\\contracts\\SimpleToken.sol",
  "compiler": {
    "name": "solc",
    "version": "0.8.0+commit.c7dfd78e.Emscripten.clang"
  },
  "schemaVersion": "3.4.3",
  "updatedAt": "2021-09-15T21:12:03.426Z",
  "devdoc": {
    "details": "Very simple ERC20 Token example, where all tokens are pre-assigned to the creator. Note they can later distribute these tokens as they wish using `transfer` and other `ERC20` functions. Based on https://github.com/OpenZeppelin/openzeppelin-contracts/blob/v2.5.1/contracts/examples/SimpleToken.sol",
    "kind": "dev",
    "methods": {
      "allowance(address,address)": {
        "details": "See {IERC20-allowance}."
      },
      "approve(address,uint256)": {
        "details": "See {IERC20-approve}. Requirements: - `spender` cannot be the zero address."
      },
      "balanceOf(address)": {
        "details": "See {IERC20-balanceOf}."
      },
      "decimals()": {
        "details": "Returns the number of decimals used to get its user representation. For example, if `decimals` equals `2`, a balance of `505` tokens should be displayed to a user as `5.05` (`505 / 10 ** 2`). Tokens usually opt for a value of 18, imitating the relationship between Ether and Wei. This is the value {ERC20} uses, unless this function is overridden; NOTE: This information is only used for _display_ purposes: it in no way affects any of the arithmetic of the contract, including {IERC20-balanceOf} and {IERC20-transfer}."
      },
      "decreaseAllowance(address,uint256)": {
        "details": "Atomically decreases the allowance granted to `spender` by the caller. This is an alternative to {approve} that can be used as a mitigation for problems described in {IERC20-approve}. Emits an {Approval} event indicating the updated allowance. Requirements: - `spender` cannot be the zero address. - `spender` must have allowance for the caller of at least `subtractedValue`."
      },
      "increaseAllowance(address,uint256)": {
        "details": "Atomically increases the allowance granted to `spender` by the caller. This is an alternative to {approve} that can be used as a mitigation for problems described in {IERC20-approve}. Emits an {Approval} event indicating the updated allowance. Requirements: - `spender` cannot be the zero address."
      },
      "name()": {
        "details": "Returns the name of the token."
      },
      "symbol()": {
        "details": "Returns the symbol of the token, usually a shorter version of the name."
      },
      "totalSupply()": {
        "details": "See {IERC20-totalSupply}."
      },
      "transfer(address,uint256)": {
        "details": "See {IERC20-transfer}. Requirements: - `recipient` cannot be the zero address. - the caller must have a balance of at least `amount`."
      },
      "transferFrom(address,address,uint256)": {
        "details": "See {IERC20-transferFrom}. Emits an {Approval} event indicating the updated allowance. This is not required by the EIP. See the note at the beginning of {ERC20}. Requirements: - `sender` and `recipient` cannot be the zero address. - `sender` must have a balance of at least `amount`. - the caller must have allowance for ``sender``'s tokens of at least `amount`."
      }
    },
    "stateVariables": {
      "wlist": {
        "details": "Constructor that gives msg.sender all of existing tokens."
      }
    },
    "title": "SimpleToken",
    "version": 1
  },
  "userdoc": {
    "kind": "user",
    "methods": {},
    "version": 1
  }
}